{
  "_format": "hh-sol-artifact-1",
  "contractName": "BugBounty",
  "sourceName": "contracts/BugBounty.sol",
  "abi": [
    {
      "inputs": [
        {
          "internalType": "address",
          "name": "_owner",
          "type": "address"
        },
        {
          "internalType": "string",
          "name": "_title",
          "type": "string"
        },
        {
          "internalType": "string",
          "name": "_description",
          "type": "string"
        },
        {
          "internalType": "uint256",
          "name": "_deadline",
          "type": "uint256"
        },
        {
          "internalType": "string",
          "name": "_severity",
          "type": "string"
        }
      ],
      "stateMutability": "payable",
      "type": "constructor"
    },
    {
      "anonymous": false,
      "inputs": [
        {
          "indexed": true,
          "internalType": "uint256",
          "name": "submissionId",
          "type": "uint256"
        },
        {
          "indexed": true,
          "internalType": "address",
          "name": "hunter",
          "type": "address"
        },
        {
          "indexed": false,
          "internalType": "uint256",
          "name": "reward",
          "type": "uint256"
        }
      ],
      "name": "SubmissionApproved",
      "type": "event"
    },
    {
      "anonymous": false,
      "inputs": [
        {
          "indexed": true,
          "internalType": "uint256",
          "name": "submissionId",
          "type": "uint256"
        },
        {
          "indexed": true,
          "internalType": "address",
          "name": "hunter",
          "type": "address"
        },
        {
          "indexed": false,
          "internalType": "string",
          "name": "ipfsHash",
          "type": "string"
        }
      ],
      "name": "SubmissionCreated",
      "type": "event"
    },
    {
      "anonymous": false,
      "inputs": [
        {
          "indexed": true,
          "internalType": "uint256",
          "name": "submissionId",
          "type": "uint256"
        },
        {
          "indexed": false,
          "internalType": "string",
          "name": "feedback",
          "type": "string"
        }
      ],
      "name": "SubmissionRejected",
      "type": "event"
    },
    {
      "inputs": [
        {
          "internalType": "uint256",
          "name": "_submissionId",
          "type": "uint256"
        }
      ],
      "name": "approveSubmission",
      "outputs": [],
      "stateMutability": "nonpayable",
      "type": "function"
    },
    {
      "inputs": [],
      "name": "deadline",
      "outputs": [
        {
          "internalType": "uint256",
          "name": "",
          "type": "uint256"
        }
      ],
      "stateMutability": "view",
      "type": "function"
    },
    {
      "inputs": [],
      "name": "description",
      "outputs": [
        {
          "internalType": "string",
          "name": "",
          "type": "string"
        }
      ],
      "stateMutability": "view",
      "type": "function"
    },
    {
      "inputs": [],
      "name": "getBountyInfo",
      "outputs": [
        {
          "internalType": "address",
          "name": "",
          "type": "address"
        },
        {
          "internalType": "string",
          "name": "",
          "type": "string"
        },
        {
          "internalType": "string",
          "name": "",
          "type": "string"
        },
        {
          "internalType": "uint256",
          "name": "",
          "type": "uint256"
        },
        {
          "internalType": "uint256",
          "name": "",
          "type": "uint256"
        },
        {
          "internalType": "string",
          "name": "",
          "type": "string"
        },
        {
          "internalType": "enum BugBounty.Status",
          "name": "",
          "type": "uint8"
        }
      ],
      "stateMutability": "view",
      "type": "function"
    },
    {
      "inputs": [],
      "name": "getSubmissionCount",
      "outputs": [
        {
          "internalType": "uint256",
          "name": "",
          "type": "uint256"
        }
      ],
      "stateMutability": "view",
      "type": "function"
    },
    {
      "inputs": [],
      "name": "getSubmissions",
      "outputs": [
        {
          "components": [
            {
              "internalType": "address",
              "name": "hunter",
              "type": "address"
            },
            {
              "internalType": "string",
              "name": "ipfsHash",
              "type": "string"
            },
            {
              "internalType": "uint256",
              "name": "timestamp",
              "type": "uint256"
            },
            {
              "internalType": "enum BugBounty.Status",
              "name": "status",
              "type": "uint8"
            },
            {
              "internalType": "string",
              "name": "feedback",
              "type": "string"
            }
          ],
          "internalType": "struct BugBounty.Submission[]",
          "name": "",
          "type": "tuple[]"
        }
      ],
      "stateMutability": "view",
      "type": "function"
    },
    {
      "inputs": [
        {
          "internalType": "address",
          "name": "_hunter",
          "type": "address"
        }
      ],
      "name": "getSubmissionsByHunter",
      "outputs": [
        {
          "internalType": "uint256[]",
          "name": "",
          "type": "uint256[]"
        }
      ],
      "stateMutability": "view",
      "type": "function"
    },
    {
      "inputs": [
        {
          "internalType": "address",
          "name": "",
          "type": "address"
        },
        {
          "internalType": "uint256",
          "name": "",
          "type": "uint256"
        }
      ],
      "name": "hunterSubmissions",
      "outputs": [
        {
          "internalType": "uint256",
          "name": "",
          "type": "uint256"
        }
      ],
      "stateMutability": "view",
      "type": "function"
    },
    {
      "inputs": [],
      "name": "owner",
      "outputs": [
        {
          "internalType": "address",
          "name": "",
          "type": "address"
        }
      ],
      "stateMutability": "view",
      "type": "function"
    },
    {
      "inputs": [
        {
          "internalType": "uint256",
          "name": "_submissionId",
          "type": "uint256"
        },
        {
          "internalType": "string",
          "name": "_feedback",
          "type": "string"
        }
      ],
      "name": "rejectSubmission",
      "outputs": [],
      "stateMutability": "nonpayable",
      "type": "function"
    },
    {
      "inputs": [],
      "name": "reward",
      "outputs": [
        {
          "internalType": "uint256",
          "name": "",
          "type": "uint256"
        }
      ],
      "stateMutability": "view",
      "type": "function"
    },
    {
      "inputs": [],
      "name": "severity",
      "outputs": [
        {
          "internalType": "string",
          "name": "",
          "type": "string"
        }
      ],
      "stateMutability": "view",
      "type": "function"
    },
    {
      "inputs": [],
      "name": "status",
      "outputs": [
        {
          "internalType": "enum BugBounty.Status",
          "name": "",
          "type": "uint8"
        }
      ],
      "stateMutability": "view",
      "type": "function"
    },
    {
      "inputs": [
        {
          "internalType": "uint256",
          "name": "",
          "type": "uint256"
        }
      ],
      "name": "submissions",
      "outputs": [
        {
          "internalType": "address",
          "name": "hunter",
          "type": "address"
        },
        {
          "internalType": "string",
          "name": "ipfsHash",
          "type": "string"
        },
        {
          "internalType": "uint256",
          "name": "timestamp",
          "type": "uint256"
        },
        {
          "internalType": "enum BugBounty.Status",
          "name": "status",
          "type": "uint8"
        },
        {
          "internalType": "string",
          "name": "feedback",
          "type": "string"
        }
      ],
      "stateMutability": "view",
      "type": "function"
    },
    {
      "inputs": [
        {
          "internalType": "string",
          "name": "_ipfsHash",
          "type": "string"
        }
      ],
      "name": "submitBug",
      "outputs": [],
      "stateMutability": "nonpayable",
      "type": "function"
    },
    {
      "inputs": [],
      "name": "title",
      "outputs": [
        {
          "internalType": "string",
          "name": "",
          "type": "string"
        }
      ],
      "stateMutability": "view",
      "type": "function"
    },
    {
      "inputs": [],
      "name": "withdrawFunds",
      "outputs": [],
      "stateMutability": "nonpayable",
      "type": "function"
    }
  ],
  "bytecode": "0x6080604052604051612bba380380612bba833981810160405281019061002591906102e1565b846000806101000a81548173ffffffffffffffffffffffffffffffffffffffff021916908373ffffffffffffffffffffffffffffffffffffffff160217905550836001908161007491906105c7565b50826002908161008491906105c7565b50346003819055508160048190555080600590816100a291906105c7565b506000600660006101000a81548160ff021916908360048111156100c9576100c8610699565b5b021790555050505050506106c8565b6000604051905090565b600080fd5b600080fd5b600073ffffffffffffffffffffffffffffffffffffffff82169050919050565b6000610117826100ec565b9050919050565b6101278161010c565b811461013257600080fd5b50565b6000815190506101448161011e565b92915050565b600080fd5b600080fd5b6000601f19601f8301169050919050565b7f4e487b7100000000000000000000000000000000000000000000000000000000600052604160045260246000fd5b61019d82610154565b810181811067ffffffffffffffff821117156101bc576101bb610165565b5b80604052505050565b60006101cf6100d8565b90506101db8282610194565b919050565b600067ffffffffffffffff8211156101fb576101fa610165565b5b61020482610154565b9050602081019050919050565b60005b8381101561022f578082015181840152602081019050610214565b60008484015250505050565b600061024e610249846101e0565b6101c5565b90508281526020810184848401111561026a5761026961014f565b5b610275848285610211565b509392505050565b600082601f8301126102925761029161014a565b5b81516102a284826020860161023b565b91505092915050565b6000819050919050565b6102be816102ab565b81146102c957600080fd5b50565b6000815190506102db816102b5565b92915050565b600080600080600060a086880312156102fd576102fc6100e2565b5b600061030b88828901610135565b955050602086015167ffffffffffffffff81111561032c5761032b6100e7565b5b6103388882890161027d565b945050604086015167ffffffffffffffff811115610359576103586100e7565b5b6103658882890161027d565b9350506060610376888289016102cc565b925050608086015167ffffffffffffffff811115610397576103966100e7565b5b6103a38882890161027d565b9150509295509295909350565b600081519050919050565b7f4e487b7100000000000000000000000000000000000000000000000000000000600052602260045260246000fd5b6000600282049050600182168061040257607f821691505b602082108103610415576104146103bb565b5b50919050565b60008190508160005260206000209050919050565b60006020601f8301049050919050565b600082821b905092915050565b60006008830261047d7fffffffffffffffffffffffffffffffffffffffffffffffffffffffffffffffff82610440565b6104878683610440565b95508019841693508086168417925050509392505050565b6000819050919050565b60006104c46104bf6104ba846102ab565b61049f565b6102ab565b9050919050565b6000819050919050565b6104de836104a9565b6104f26104ea826104cb565b84845461044d565b825550505050565b600090565b6105076104fa565b6105128184846104d5565b505050565b5b818110156105365761052b6000826104ff565b600181019050610518565b5050565b601f82111561057b5761054c8161041b565b61055584610430565b81016020851015610564578190505b61057861057085610430565b830182610517565b50505b505050565b600082821c905092915050565b600061059e60001984600802610580565b1980831691505092915050565b60006105b7838361058d565b9150826002028217905092915050565b6105d0826103b0565b67ffffffffffffffff8111156105e9576105e8610165565b5b6105f382546103ea565b6105fe82828561053a565b600060209050601f831160018114610631576000841561061f578287015190505b61062985826105ab565b865550610691565b601f19841661063f8661041b565b60005b8281101561066757848901518255600182019150602085019450602081019050610642565b868310156106845784890151610680601f89168261058d565b8355505b6001600288020188555050505b505050505050565b7f4e487b7100000000000000000000000000000000000000000000000000000000600052602160045260246000fd5b6124e3806106d76000396000f3fe608060405234801561001057600080fd5b506004361061010b5760003560e01c80637284e416116100a25780639999d2ae116100715780639999d2ae14610270578063ad73349e1461028e578063c35db4eb146102c2578063dfde74fe146102e0578063f79e7600146103105761010b565b80637284e416146101fc578063733136601461021a57806380fd0fb3146102365780638da5cb5b146102525761010b565b806329dcb0cf116100de57806329dcb0cf1461018657806336f5ffbe146101a45780634a79d50c146101c057806354f6aa20146101de5761010b565b806313cce2b914610110578063200d2ed214610140578063228cb7331461015e57806324600fc31461017c575b600080fd5b61012a60048036038101906101259190611624565b610334565b6040516101379190611719565b60405180910390f35b6101486103cb565b60405161015591906117b2565b60405180910390f35b6101666103de565b60405161017391906117dc565b60405180910390f35b6101846103e4565b005b61018e6105c0565b60405161019b91906117dc565b60405180910390f35b6101be60048036038101906101b9919061193d565b6105c6565b005b6101c86108c1565b6040516101d59190611a05565b60405180910390f35b6101e661094f565b6040516101f39190611bce565b60405180910390f35b610204610b6d565b6040516102119190611a05565b60405180910390f35b610234600480360381019061022f9190611c1c565b610bfb565b005b610250600480360381019061024b9190611c78565b610e26565b005b61025a61113a565b6040516102679190611cb4565b60405180910390f35b61027861115e565b60405161028591906117dc565b60405180910390f35b6102a860048036038101906102a39190611c78565b61116b565b6040516102b9959493929190611ccf565b60405180910390f35b6102ca6112ee565b6040516102d79190611a05565b60405180910390f35b6102fa60048036038101906102f59190611d30565b61137c565b60405161030791906117dc565b60405180910390f35b6103186113ad565b60405161032b9796959493929190611d70565b60405180910390f35b6060600860008373ffffffffffffffffffffffffffffffffffffffff1673ffffffffffffffffffffffffffffffffffffffff1681526020019081526020016000208054806020026020016040519081016040528092919081815260200182805480156103bf57602002820191906000526020600020905b8154815260200190600101908083116103ab575b50505050509050919050565b600660009054906101000a900460ff1681565b60035481565b60008054906101000a900473ffffffffffffffffffffffffffffffffffffffff1673ffffffffffffffffffffffffffffffffffffffff163373ffffffffffffffffffffffffffffffffffffffff1614610472576040517f08c379a000000000000000000000000000000000000000000000000000000000815260040161046990611e66565b60405180910390fd5b60045442116104b6576040517f08c379a00000000000000000000000000000000000000000000000000000000081526004016104ad90611ed2565b60405180910390fd5b600060048111156104ca576104c961173b565b5b600660009054906101000a900460ff1660048111156104ec576104eb61173b565b5b1461052c576040517f08c379a000000000000000000000000000000000000000000000000000000000815260040161052390611f3e565b60405180910390fd5b6003600660006101000a81548160ff021916908360048111156105525761055161173b565b5b021790555060008054906101000a900473ffffffffffffffffffffffffffffffffffffffff1673ffffffffffffffffffffffffffffffffffffffff166108fc479081150290604051600060405180830381858888f193505050501580156105bd573d6000803e3d6000fd5b50565b60045481565b600060048111156105da576105d961173b565b5b600660009054906101000a900460ff1660048111156105fc576105fb61173b565b5b1461063c576040517f08c379a000000000000000000000000000000000000000000000000000000000815260040161063390611f3e565b60405180910390fd5b600454421115610681576040517f08c379a000000000000000000000000000000000000000000000000000000000815260040161067890611faa565b60405180910390fd5b60008151116106c5576040517f08c379a00000000000000000000000000000000000000000000000000000000081526004016106bc90612016565b60405180910390fd5b6000600780549050905060076040518060a001604052803373ffffffffffffffffffffffffffffffffffffffff168152602001848152602001428152602001600160048111156107185761071761173b565b5b815260200160405180602001604052806000815250815250908060018154018082558091505060019003906000526020600020906005020160009091909190915060008201518160000160006101000a81548173ffffffffffffffffffffffffffffffffffffffff021916908373ffffffffffffffffffffffffffffffffffffffff16021790555060208201518160010190816107b59190612242565b506040820151816002015560608201518160030160006101000a81548160ff021916908360048111156107eb576107ea61173b565b5b021790555060808201518160040190816108059190612242565b505050600860003373ffffffffffffffffffffffffffffffffffffffff1673ffffffffffffffffffffffffffffffffffffffff1681526020019081526020016000208190806001815401808255809150506001900390600052602060002001600090919091909150553373ffffffffffffffffffffffffffffffffffffffff16817f72075524713934864c8a8ff2740c94cd50c441bf186d8ffd9b908ca8dbb4776d846040516108b59190611a05565b60405180910390a35050565b600180546108ce90612065565b80601f01602080910402602001604051908101604052809291908181526020018280546108fa90612065565b80156109475780601f1061091c57610100808354040283529160200191610947565b820191906000526020600020905b81548152906001019060200180831161092a57829003601f168201915b505050505081565b60606007805480602002602001604051908101604052809291908181526020016000905b82821015610b6457838290600052602060002090600502016040518060a00160405290816000820160009054906101000a900473ffffffffffffffffffffffffffffffffffffffff1673ffffffffffffffffffffffffffffffffffffffff1673ffffffffffffffffffffffffffffffffffffffff1681526020016001820180546109fc90612065565b80601f0160208091040260200160405190810160405280929190818152602001828054610a2890612065565b8015610a755780601f10610a4a57610100808354040283529160200191610a75565b820191906000526020600020905b815481529060010190602001808311610a5857829003601f168201915b50505050508152602001600282015481526020016003820160009054906101000a900460ff166004811115610aad57610aac61173b565b5b6004811115610abf57610abe61173b565b5b8152602001600482018054610ad390612065565b80601f0160208091040260200160405190810160405280929190818152602001828054610aff90612065565b8015610b4c5780601f10610b2157610100808354040283529160200191610b4c565b820191906000526020600020905b815481529060010190602001808311610b2f57829003601f168201915b50505050508152505081526020019060010190610973565b50505050905090565b60028054610b7a90612065565b80601f0160208091040260200160405190810160405280929190818152602001828054610ba690612065565b8015610bf35780601f10610bc857610100808354040283529160200191610bf3565b820191906000526020600020905b815481529060010190602001808311610bd657829003601f168201915b505050505081565b60008054906101000a900473ffffffffffffffffffffffffffffffffffffffff1673ffffffffffffffffffffffffffffffffffffffff163373ffffffffffffffffffffffffffffffffffffffff1614610c89576040517f08c379a0000000000000000000000000000000000000000000000000000000008152600401610c8090611e66565b60405180910390fd5b6007805490508210610cd0576040517f08c379a0000000000000000000000000000000000000000000000000000000008152600401610cc790612360565b60405180910390fd5b60016004811115610ce457610ce361173b565b5b60078381548110610cf857610cf7612380565b5b906000526020600020906005020160030160009054906101000a900460ff166004811115610d2957610d2861173b565b5b14610d69576040517f08c379a0000000000000000000000000000000000000000000000000000000008152600401610d6090612421565b60405180910390fd5b600360078381548110610d7f57610d7e612380565b5b906000526020600020906005020160030160006101000a81548160ff02191690836004811115610db257610db161173b565b5b02179055508060078381548110610dcc57610dcb612380565b5b90600052602060002090600502016004019081610de99190612242565b50817f12eae109ae3df8b53f3b481a5bbf59a450b9a46f48804297e11a871c6e27eb5682604051610e1a9190611a05565b60405180910390a25050565b60008054906101000a900473ffffffffffffffffffffffffffffffffffffffff1673ffffffffffffffffffffffffffffffffffffffff163373ffffffffffffffffffffffffffffffffffffffff1614610eb4576040517f08c379a0000000000000000000000000000000000000000000000000000000008152600401610eab90611e66565b60405180910390fd5b6007805490508110610efb576040517f08c379a0000000000000000000000000000000000000000000000000000000008152600401610ef290612360565b60405180910390fd5b60016004811115610f0f57610f0e61173b565b5b60078281548110610f2357610f22612380565b5b906000526020600020906005020160030160009054906101000a900460ff166004811115610f5457610f5361173b565b5b14610f94576040517f08c379a0000000000000000000000000000000000000000000000000000000008152600401610f8b90612421565b60405180910390fd5b600354471015610fd9576040517f08c379a0000000000000000000000000000000000000000000000000000000008152600401610fd09061248d565b60405180910390fd5b600260078281548110610fef57610fee612380565b5b906000526020600020906005020160030160006101000a81548160ff021916908360048111156110225761102161173b565b5b02179055506004600660006101000a81548160ff0219169083600481111561104d5761104c61173b565b5b021790555060006007828154811061106857611067612380565b5b906000526020600020906005020160000160009054906101000a900473ffffffffffffffffffffffffffffffffffffffff1690508073ffffffffffffffffffffffffffffffffffffffff166108fc6003549081150290604051600060405180830381858888f193505050501580156110e4573d6000803e3d6000fd5b508073ffffffffffffffffffffffffffffffffffffffff16827f7b002445698eb657f0fbae44aa606b44c52031b120c29714c5047dbaad754e7e60035460405161112e91906117dc565b60405180910390a35050565b60008054906101000a900473ffffffffffffffffffffffffffffffffffffffff1681565b6000600780549050905090565b6007818154811061117b57600080fd5b90600052602060002090600502016000915090508060000160009054906101000a900473ffffffffffffffffffffffffffffffffffffffff16908060010180546111c490612065565b80601f01602080910402602001604051908101604052809291908181526020018280546111f090612065565b801561123d5780601f106112125761010080835404028352916020019161123d565b820191906000526020600020905b81548152906001019060200180831161122057829003601f168201915b5050505050908060020154908060030160009054906101000a900460ff169080600401805461126b90612065565b80601f016020809104026020016040519081016040528092919081815260200182805461129790612065565b80156112e45780601f106112b9576101008083540402835291602001916112e4565b820191906000526020600020905b8154815290600101906020018083116112c757829003601f168201915b5050505050905085565b600580546112fb90612065565b80601f016020809104026020016040519081016040528092919081815260200182805461132790612065565b80156113745780601f1061134957610100808354040283529160200191611374565b820191906000526020600020905b81548152906001019060200180831161135757829003601f168201915b505050505081565b6008602052816000526040600020818154811061139857600080fd5b90600052602060002001600091509150505481565b6000606080600080606060008060009054906101000a900473ffffffffffffffffffffffffffffffffffffffff16600160026003546004546005600660009054906101000a900460ff1685805461140390612065565b80601f016020809104026020016040519081016040528092919081815260200182805461142f90612065565b801561147c5780601f106114515761010080835404028352916020019161147c565b820191906000526020600020905b81548152906001019060200180831161145f57829003601f168201915b5050505050955084805461148f90612065565b80601f01602080910402602001604051908101604052809291908181526020018280546114bb90612065565b80156115085780601f106114dd57610100808354040283529160200191611508565b820191906000526020600020905b8154815290600101906020018083116114eb57829003601f168201915b5050505050945081805461151b90612065565b80601f016020809104026020016040519081016040528092919081815260200182805461154790612065565b80156115945780601f1061156957610100808354040283529160200191611594565b820191906000526020600020905b81548152906001019060200180831161157757829003601f168201915b50505050509150965096509650965096509650965090919293949596565b6000604051905090565b600080fd5b600080fd5b600073ffffffffffffffffffffffffffffffffffffffff82169050919050565b60006115f1826115c6565b9050919050565b611601816115e6565b811461160c57600080fd5b50565b60008135905061161e816115f8565b92915050565b60006020828403121561163a576116396115bc565b5b60006116488482850161160f565b91505092915050565b600081519050919050565b600082825260208201905092915050565b6000819050602082019050919050565b6000819050919050565b6116908161167d565b82525050565b60006116a28383611687565b60208301905092915050565b6000602082019050919050565b60006116c682611651565b6116d0818561165c565b93506116db8361166d565b8060005b8381101561170c5781516116f38882611696565b97506116fe836116ae565b9250506001810190506116df565b5085935050505092915050565b6000602082019050818103600083015261173381846116bb565b905092915050565b7f4e487b7100000000000000000000000000000000000000000000000000000000600052602160045260246000fd5b6005811061177b5761177a61173b565b5b50565b600081905061178c8261176a565b919050565b600061179c8261177e565b9050919050565b6117ac81611791565b82525050565b60006020820190506117c760008301846117a3565b92915050565b6117d68161167d565b82525050565b60006020820190506117f160008301846117cd565b92915050565b600080fd5b600080fd5b6000601f19601f8301169050919050565b7f4e487b7100000000000000000000000000000000000000000000000000000000600052604160045260246000fd5b61184a82611801565b810181811067ffffffffffffffff8211171561186957611868611812565b5b80604052505050565b600061187c6115b2565b90506118888282611841565b919050565b600067ffffffffffffffff8211156118a8576118a7611812565b5b6118b182611801565b9050602081019050919050565b82818337600083830152505050565b60006118e06118db8461188d565b611872565b9050828152602081018484840111156118fc576118fb6117fc565b5b6119078482856118be565b509392505050565b600082601f830112611924576119236117f7565b5b81356119348482602086016118cd565b91505092915050565b600060208284031215611953576119526115bc565b5b600082013567ffffffffffffffff811115611971576119706115c1565b5b61197d8482850161190f565b91505092915050565b600081519050919050565b600082825260208201905092915050565b60005b838110156119c05780820151818401526020810190506119a5565b60008484015250505050565b60006119d782611986565b6119e18185611991565b93506119f18185602086016119a2565b6119fa81611801565b840191505092915050565b60006020820190508181036000830152611a1f81846119cc565b905092915050565b600081519050919050565b600082825260208201905092915050565b6000819050602082019050919050565b611a5c816115e6565b82525050565b600082825260208201905092915050565b6000611a7e82611986565b611a888185611a62565b9350611a988185602086016119a2565b611aa181611801565b840191505092915050565b611ab581611791565b82525050565b600060a083016000830151611ad36000860182611a53565b5060208301518482036020860152611aeb8282611a73565b9150506040830151611b006040860182611687565b506060830151611b136060860182611aac565b5060808301518482036080860152611b2b8282611a73565b9150508091505092915050565b6000611b448383611abb565b905092915050565b6000602082019050919050565b6000611b6482611a27565b611b6e8185611a32565b935083602082028501611b8085611a43565b8060005b85811015611bbc5784840389528151611b9d8582611b38565b9450611ba883611b4c565b925060208a01995050600181019050611b84565b50829750879550505050505092915050565b60006020820190508181036000830152611be88184611b59565b905092915050565b611bf98161167d565b8114611c0457600080fd5b50565b600081359050611c1681611bf0565b92915050565b60008060408385031215611c3357611c326115bc565b5b6000611c4185828601611c07565b925050602083013567ffffffffffffffff811115611c6257611c616115c1565b5b611c6e8582860161190f565b9150509250929050565b600060208284031215611c8e57611c8d6115bc565b5b6000611c9c84828501611c07565b91505092915050565b611cae816115e6565b82525050565b6000602082019050611cc96000830184611ca5565b92915050565b600060a082019050611ce46000830188611ca5565b8181036020830152611cf681876119cc565b9050611d0560408301866117cd565b611d1260608301856117a3565b8181036080830152611d2481846119cc565b90509695505050505050565b60008060408385031215611d4757611d466115bc565b5b6000611d558582860161160f565b9250506020611d6685828601611c07565b9150509250929050565b600060e082019050611d85600083018a611ca5565b8181036020830152611d9781896119cc565b90508181036040830152611dab81886119cc565b9050611dba60608301876117cd565b611dc760808301866117cd565b81810360a0830152611dd981856119cc565b9050611de860c08301846117a3565b98975050505050505050565b7f4f6e6c79206f776e65722063616e2063616c6c20746869732066756e6374696f60008201527f6e00000000000000000000000000000000000000000000000000000000000000602082015250565b6000611e50602183611991565b9150611e5b82611df4565b604082019050919050565b60006020820190508181036000830152611e7f81611e43565b9050919050565b7f426f756e747920646561646c696e6520686173206e6f74207061737365640000600082015250565b6000611ebc601e83611991565b9150611ec782611e86565b602082019050919050565b60006020820190508181036000830152611eeb81611eaf565b9050919050565b7f426f756e7479206973206e6f7420616374697665000000000000000000000000600082015250565b6000611f28601483611991565b9150611f3382611ef2565b602082019050919050565b60006020820190508181036000830152611f5781611f1b565b9050919050565b7f426f756e747920646561646c696e652068617320706173736564000000000000600082015250565b6000611f94601a83611991565b9150611f9f82611f5e565b602082019050919050565b60006020820190508181036000830152611fc381611f87565b9050919050565b7f4950465320686173682063616e6e6f7420626520656d70747900000000000000600082015250565b6000612000601983611991565b915061200b82611fca565b602082019050919050565b6000602082019050818103600083015261202f81611ff3565b9050919050565b7f4e487b7100000000000000000000000000000000000000000000000000000000600052602260045260246000fd5b6000600282049050600182168061207d57607f821691505b6020821081036120905761208f612036565b5b50919050565b60008190508160005260206000209050919050565b60006020601f8301049050919050565b600082821b905092915050565b6000600883026120f87fffffffffffffffffffffffffffffffffffffffffffffffffffffffffffffffff826120bb565b61210286836120bb565b95508019841693508086168417925050509392505050565b6000819050919050565b600061213f61213a6121358461167d565b61211a565b61167d565b9050919050565b6000819050919050565b61215983612124565b61216d61216582612146565b8484546120c8565b825550505050565b600090565b612182612175565b61218d818484612150565b505050565b5b818110156121b1576121a660008261217a565b600181019050612193565b5050565b601f8211156121f6576121c781612096565b6121d0846120ab565b810160208510156121df578190505b6121f36121eb856120ab565b830182612192565b50505b505050565b600082821c905092915050565b6000612219600019846008026121fb565b1980831691505092915050565b60006122328383612208565b9150826002028217905092915050565b61224b82611986565b67ffffffffffffffff81111561226457612263611812565b5b61226e8254612065565b6122798282856121b5565b600060209050601f8311600181146122ac576000841561229a578287015190505b6122a48582612226565b86555061230c565b601f1984166122ba86612096565b60005b828110156122e2578489015182556001820191506020850194506020810190506122bd565b868310156122ff57848901516122fb601f891682612208565b8355505b6001600288020188555050505b505050505050565b7f496e76616c6964207375626d697373696f6e2049440000000000000000000000600082015250565b600061234a601583611991565b915061235582612314565b602082019050919050565b600060208201905081810360008301526123798161233d565b9050919050565b7f4e487b7100000000000000000000000000000000000000000000000000000000600052603260045260246000fd5b7f5375626d697373696f6e206e6f7420696e207375626d6974746564207374617460008201527f6500000000000000000000000000000000000000000000000000000000000000602082015250565b600061240b602183611991565b9150612416826123af565b604082019050919050565b6000602082019050818103600083015261243a816123fe565b9050919050565b7f496e73756666696369656e7420636f6e74726163742062616c616e6365000000600082015250565b6000612477601d83611991565b915061248282612441565b602082019050919050565b600060208201905081810360008301526124a68161246a565b905091905056fea2646970667358221220e4242858fae8480d11fee79ad7b07bf71695fff873037669a18b3ccbf26c141c64736f6c634300081c0033",
  "linkReferences": {},
  "deployedLinkReferences": {}
}