{
  "_format": "hh-sol-artifact-1",
  "contractName": "GitHubRegistry",
  "sourceName": "contracts/GitHubRegistry.sol",
  "abi": [
    {
      "anonymous": false,
      "inputs": [
        {
          "indexed": true,
          "internalType": "address",
          "name": "walletAddress",
          "type": "address"
        },
        {
          "indexed": false,
          "internalType": "string",
          "name": "githubUsername",
          "type": "string"
        },
        {
          "indexed": false,
          "internalType": "uint256",
          "name": "timestamp",
          "type": "uint256"
        }
      ],
      "name": "DeveloperRegistered",
      "type": "event"
    },
    {
      "anonymous": false,
      "inputs": [
        {
          "indexed": true,
          "internalType": "address",
          "name": "walletAddress",
          "type": "address"
        },
        {
          "indexed": false,
          "internalType": "string",
          "name": "githubUsername",
          "type": "string"
        }
      ],
      "name": "DeveloperVerified",
      "type": "event"
    },
    {
      "anonymous": false,
      "inputs": [
        {
          "indexed": true,
          "internalType": "address",
          "name": "walletAddress",
          "type": "address"
        },
        {
          "indexed": false,
          "internalType": "uint256",
          "name": "newReputation",
          "type": "uint256"
        },
        {
          "indexed": false,
          "internalType": "uint256",
          "name": "bountiesCompleted",
          "type": "uint256"
        },
        {
          "indexed": false,
          "internalType": "uint256",
          "name": "totalEarnings",
          "type": "uint256"
        }
      ],
      "name": "ReputationUpdated",
      "type": "event"
    },
    {
      "inputs": [
        {
          "internalType": "address",
          "name": "",
          "type": "address"
        }
      ],
      "name": "developers",
      "outputs": [
        {
          "internalType": "string",
          "name": "githubUsername",
          "type": "string"
        },
        {
          "internalType": "address",
          "name": "walletAddress",
          "type": "address"
        },
        {
          "internalType": "uint256",
          "name": "reputation",
          "type": "uint256"
        },
        {
          "internalType": "uint256",
          "name": "bountiesCompleted",
          "type": "uint256"
        },
        {
          "internalType": "uint256",
          "name": "totalEarnings",
          "type": "uint256"
        },
        {
          "internalType": "bool",
          "name": "isVerified",
          "type": "bool"
        },
        {
          "internalType": "uint256",
          "name": "registrationTime",
          "type": "uint256"
        }
      ],
      "stateMutability": "view",
      "type": "function"
    },
    {
      "inputs": [
        {
          "internalType": "address",
          "name": "_walletAddress",
          "type": "address"
        }
      ],
      "name": "getDeveloper",
      "outputs": [
        {
          "components": [
            {
              "internalType": "string",
              "name": "githubUsername",
              "type": "string"
            },
            {
              "internalType": "address",
              "name": "walletAddress",
              "type": "address"
            },
            {
              "internalType": "uint256",
              "name": "reputation",
              "type": "uint256"
            },
            {
              "internalType": "uint256",
              "name": "bountiesCompleted",
              "type": "uint256"
            },
            {
              "internalType": "uint256",
              "name": "totalEarnings",
              "type": "uint256"
            },
            {
              "internalType": "bool",
              "name": "isVerified",
              "type": "bool"
            },
            {
              "internalType": "uint256",
              "name": "registrationTime",
              "type": "uint256"
            }
          ],
          "internalType": "struct GitHubRegistry.Developer",
          "name": "",
          "type": "tuple"
        }
      ],
      "stateMutability": "view",
      "type": "function"
    },
    {
      "inputs": [],
      "name": "getLeaderboard",
      "outputs": [
        {
          "internalType": "address[]",
          "name": "",
          "type": "address[]"
        },
        {
          "internalType": "uint256[]",
          "name": "",
          "type": "uint256[]"
        }
      ],
      "stateMutability": "view",
      "type": "function"
    },
    {
      "inputs": [],
      "name": "getVerifiedDevelopers",
      "outputs": [
        {
          "internalType": "address[]",
          "name": "",
          "type": "address[]"
        }
      ],
      "stateMutability": "view",
      "type": "function"
    },
    {
      "inputs": [
        {
          "internalType": "string",
          "name": "_githubUsername",
          "type": "string"
        }
      ],
      "name": "getWalletByGitHub",
      "outputs": [
        {
          "internalType": "address",
          "name": "",
          "type": "address"
        }
      ],
      "stateMutability": "view",
      "type": "function"
    },
    {
      "inputs": [
        {
          "internalType": "string",
          "name": "",
          "type": "string"
        }
      ],
      "name": "githubToWallet",
      "outputs": [
        {
          "internalType": "address",
          "name": "",
          "type": "address"
        }
      ],
      "stateMutability": "view",
      "type": "function"
    },
    {
      "inputs": [
        {
          "internalType": "address",
          "name": "_walletAddress",
          "type": "address"
        }
      ],
      "name": "isVerifiedDeveloper",
      "outputs": [
        {
          "internalType": "bool",
          "name": "",
          "type": "bool"
        }
      ],
      "stateMutability": "view",
      "type": "function"
    },
    {
      "inputs": [
        {
          "internalType": "string",
          "name": "_githubUsername",
          "type": "string"
        }
      ],
      "name": "registerDeveloper",
      "outputs": [],
      "stateMutability": "nonpayable",
      "type": "function"
    },
    {
      "inputs": [
        {
          "internalType": "address",
          "name": "_developer",
          "type": "address"
        },
        {
          "internalType": "uint256",
          "name": "_bountyReward",
          "type": "uint256"
        }
      ],
      "name": "updateReputation",
      "outputs": [],
      "stateMutability": "nonpayable",
      "type": "function"
    },
    {
      "inputs": [
        {
          "internalType": "uint256",
          "name": "",
          "type": "uint256"
        }
      ],
      "name": "verifiedDevelopers",
      "outputs": [
        {
          "internalType": "address",
          "name": "",
          "type": "address"
        }
      ],
      "stateMutability": "view",
      "type": "function"
    },
    {
      "inputs": [
        {
          "internalType": "address",
          "name": "_walletAddress",
          "type": "address"
        }
      ],
      "name": "verifyDeveloper",
      "outputs": [],
      "stateMutability": "nonpayable",
      "type": "function"
    }
  ],
  "bytecode": "0x6080604052348015600f57600080fd5b506123a48061001f6000396000f3fe608060405234801561001057600080fd5b50600436106100a95760003560e01c806367e13ee01161007157806367e13ee01461017e5780636d763a6e146101ae578063741e3049146101cd578063aa83699a146101fd578063bad61fc91461022d578063f5c91a0814610249576100a9565b806301276a8d146100ae578063018f7650146100de5780632148d3be1461010e57806350fafc551461012c57806361fd5c2014610148575b600080fd5b6100c860048036038101906100c39190611577565b610265565b6040516100d59190611601565b60405180910390f35b6100f860048036038101906100f39190611648565b6102ad565b6040516101059190611690565b60405180910390f35b610116610305565b6040516101239190611769565b60405180910390f35b61014660048036038101906101419190611648565b610393565b005b610162600480360381019061015d9190611648565b610600565b6040516101759796959493929190611823565b60405180910390f35b61019860048036038101906101939190611648565b6106f7565b6040516101a5919061199d565b60405180910390f35b6101b661087a565b6040516101c4929190611a6e565b60405180910390f35b6101e760048036038101906101e29190611ad1565b610c90565b6040516101f49190611601565b60405180910390f35b61021760048036038101906102129190611577565b610ccf565b6040516102249190611601565b60405180910390f35b61024760048036038101906102429190611577565b610d18565b005b610263600480360381019061025e9190611afe565b61107e565b005b60006001826040516102779190611b7a565b908152602001604051809103902060009054906101000a900473ffffffffffffffffffffffffffffffffffffffff169050919050565b60008060008373ffffffffffffffffffffffffffffffffffffffff1673ffffffffffffffffffffffffffffffffffffffff16815260200190815260200160002060050160009054906101000a900460ff169050919050565b6060600280548060200260200160405190810160405280929190818152602001828054801561038957602002820191906000526020600020905b8160009054906101000a900473ffffffffffffffffffffffffffffffffffffffff1673ffffffffffffffffffffffffffffffffffffffff168152602001906001019080831161033f575b5050505050905090565b60008060008373ffffffffffffffffffffffffffffffffffffffff1673ffffffffffffffffffffffffffffffffffffffff16815260200190815260200160002060000180546103e190611bc0565b905011610423576040517f08c379a000000000000000000000000000000000000000000000000000000000815260040161041a90611c3d565b60405180910390fd5b6000808273ffffffffffffffffffffffffffffffffffffffff1673ffffffffffffffffffffffffffffffffffffffff16815260200190815260200160002060050160009054906101000a900460ff16156104b2576040517f08c379a00000000000000000000000000000000000000000000000000000000081526004016104a990611ca9565b60405180910390fd5b60016000808373ffffffffffffffffffffffffffffffffffffffff1673ffffffffffffffffffffffffffffffffffffffff16815260200190815260200160002060050160006101000a81548160ff0219169083151502179055506002819080600181540180825580915050600190039060005260206000200160009091909190916101000a81548173ffffffffffffffffffffffffffffffffffffffff021916908373ffffffffffffffffffffffffffffffffffffffff1602179055508073ffffffffffffffffffffffffffffffffffffffff167f1f12852b08652e51f132d3e8d07eb7e0512a7cd5de32505414bcbf9fb328d1ac6000808473ffffffffffffffffffffffffffffffffffffffff1673ffffffffffffffffffffffffffffffffffffffff1681526020019081526020016000206000016040516105f59190611d62565b60405180910390a250565b600060205280600052604060002060009150905080600001805461062390611bc0565b80601f016020809104026020016040519081016040528092919081815260200182805461064f90611bc0565b801561069c5780601f106106715761010080835404028352916020019161069c565b820191906000526020600020905b81548152906001019060200180831161067f57829003601f168201915b5050505050908060010160009054906101000a900473ffffffffffffffffffffffffffffffffffffffff16908060020154908060030154908060040154908060050160009054906101000a900460ff16908060060154905087565b6106ff6113c8565b6000808373ffffffffffffffffffffffffffffffffffffffff1673ffffffffffffffffffffffffffffffffffffffff1681526020019081526020016000206040518060e001604052908160008201805461075890611bc0565b80601f016020809104026020016040519081016040528092919081815260200182805461078490611bc0565b80156107d15780601f106107a6576101008083540402835291602001916107d1565b820191906000526020600020905b8154815290600101906020018083116107b457829003601f168201915b505050505081526020016001820160009054906101000a900473ffffffffffffffffffffffffffffffffffffffff1673ffffffffffffffffffffffffffffffffffffffff1673ffffffffffffffffffffffffffffffffffffffff1681526020016002820154815260200160038201548152602001600482015481526020016005820160009054906101000a900460ff161515151581526020016006820154815250509050919050565b6060806000600280549050905060008167ffffffffffffffff8111156108a3576108a261144c565b5b6040519080825280602002602001820160405280156108d15781602001602082028036833780820191505090505b50905060008267ffffffffffffffff8111156108f0576108ef61144c565b5b60405190808252806020026020018201604052801561091e5781602001602082028036833780820191505090505b50905060005b83811015610a6457600281815481106109405761093f611d84565b5b9060005260206000200160009054906101000a900473ffffffffffffffffffffffffffffffffffffffff1683828151811061097e5761097d611d84565b5b602002602001019073ffffffffffffffffffffffffffffffffffffffff16908173ffffffffffffffffffffffffffffffffffffffff1681525050600080600283815481106109cf576109ce611d84565b5b9060005260206000200160009054906101000a900473ffffffffffffffffffffffffffffffffffffffff1673ffffffffffffffffffffffffffffffffffffffff1673ffffffffffffffffffffffffffffffffffffffff16815260200190815260200160002060020154828281518110610a4b57610a4a611d84565b5b6020026020010181815250508080600101915050610924565b5060005b600184610a759190611de2565b811015610c825760005b60018286610a8d9190611de2565b610a979190611de2565b811015610c745782600182610aac9190611e16565b81518110610abd57610abc611d84565b5b6020026020010151838281518110610ad857610ad7611d84565b5b60200260200101511015610c67576000838281518110610afb57610afa611d84565b5b6020026020010151905083600183610b139190611e16565b81518110610b2457610b23611d84565b5b6020026020010151848381518110610b3f57610b3e611d84565b5b6020026020010181815250508084600184610b5a9190611e16565b81518110610b6b57610b6a611d84565b5b6020026020010181815250506000858381518110610b8c57610b8b611d84565b5b6020026020010151905085600184610ba49190611e16565b81518110610bb557610bb4611d84565b5b6020026020010151868481518110610bd057610bcf611d84565b5b602002602001019073ffffffffffffffffffffffffffffffffffffffff16908173ffffffffffffffffffffffffffffffffffffffff16815250508086600185610c199190611e16565b81518110610c2a57610c29611d84565b5b602002602001019073ffffffffffffffffffffffffffffffffffffffff16908173ffffffffffffffffffffffffffffffffffffffff168152505050505b8080600101915050610a7f565b508080600101915050610a68565b508181945094505050509091565b60028181548110610ca057600080fd5b906000526020600020016000915054906101000a900473ffffffffffffffffffffffffffffffffffffffff1681565b6001818051602081018201805184825260208301602085012081835280955050505050506000915054906101000a900473ffffffffffffffffffffffffffffffffffffffff1681565b60008060003373ffffffffffffffffffffffffffffffffffffffff1673ffffffffffffffffffffffffffffffffffffffff1681526020019081526020016000206000018054610d6690611bc0565b905014610da8576040517f08c379a0000000000000000000000000000000000000000000000000000000008152600401610d9f90611e96565b60405180910390fd5b6000815111610dec576040517f08c379a0000000000000000000000000000000000000000000000000000000008152600401610de390611f02565b60405180910390fd5b600073ffffffffffffffffffffffffffffffffffffffff16600182604051610e149190611b7a565b908152602001604051809103902060009054906101000a900473ffffffffffffffffffffffffffffffffffffffff1673ffffffffffffffffffffffffffffffffffffffff1614610e99576040517f08c379a0000000000000000000000000000000000000000000000000000000008152600401610e9090611f94565b60405180910390fd5b6040518060e001604052808281526020013373ffffffffffffffffffffffffffffffffffffffff168152602001600081526020016000815260200160008152602001600015158152602001428152506000803373ffffffffffffffffffffffffffffffffffffffff1673ffffffffffffffffffffffffffffffffffffffff1681526020019081526020016000206000820151816000019081610f3b919061214b565b5060208201518160010160006101000a81548173ffffffffffffffffffffffffffffffffffffffff021916908373ffffffffffffffffffffffffffffffffffffffff16021790555060408201518160020155606082015181600301556080820151816004015560a08201518160050160006101000a81548160ff02191690831515021790555060c0820151816006015590505033600182604051610fdf9190611b7a565b908152602001604051809103902060006101000a81548173ffffffffffffffffffffffffffffffffffffffff021916908373ffffffffffffffffffffffffffffffffffffffff1602179055503373ffffffffffffffffffffffffffffffffffffffff167f2ceab1c6930543e076df982ab126f352988b14512c7308b10d6f5a7c0e0735bc824260405161107392919061221d565b60405180910390a250565b60008060008473ffffffffffffffffffffffffffffffffffffffff1673ffffffffffffffffffffffffffffffffffffffff16815260200190815260200160002060000180546110cc90611bc0565b90501161110e576040517f08c379a000000000000000000000000000000000000000000000000000000000815260040161110590611c3d565b60405180910390fd5b6000808373ffffffffffffffffffffffffffffffffffffffff1673ffffffffffffffffffffffffffffffffffffffff16815260200190815260200160002060030160008154809291906111609061224d565b9190505550806000808473ffffffffffffffffffffffffffffffffffffffff1673ffffffffffffffffffffffffffffffffffffffff16815260200190815260200160002060040160008282546111b69190611e16565b92505081905550670de0b6b3a76400006000808473ffffffffffffffffffffffffffffffffffffffff1673ffffffffffffffffffffffffffffffffffffffff1681526020019081526020016000206004015461121291906122c4565b600a6000808573ffffffffffffffffffffffffffffffffffffffff1673ffffffffffffffffffffffffffffffffffffffff1681526020019081526020016000206003015461126091906122f5565b61126a9190611e16565b6000808473ffffffffffffffffffffffffffffffffffffffff1673ffffffffffffffffffffffffffffffffffffffff168152602001908152602001600020600201819055508173ffffffffffffffffffffffffffffffffffffffff167fc2fd17ad7e9f23b8607f0bd02d7a6cdcccd5a964fa99ce5a066ed34c5b4bb55b6000808573ffffffffffffffffffffffffffffffffffffffff1673ffffffffffffffffffffffffffffffffffffffff168152602001908152602001600020600201546000808673ffffffffffffffffffffffffffffffffffffffff1673ffffffffffffffffffffffffffffffffffffffff168152602001908152602001600020600301546000808773ffffffffffffffffffffffffffffffffffffffff1673ffffffffffffffffffffffffffffffffffffffff168152602001908152602001600020600401546040516113bc93929190612337565b60405180910390a25050565b6040518060e0016040528060608152602001600073ffffffffffffffffffffffffffffffffffffffff168152602001600081526020016000815260200160008152602001600015158152602001600081525090565b6000604051905090565b600080fd5b600080fd5b600080fd5b600080fd5b6000601f19601f8301169050919050565b7f4e487b7100000000000000000000000000000000000000000000000000000000600052604160045260246000fd5b6114848261143b565b810181811067ffffffffffffffff821117156114a3576114a261144c565b5b80604052505050565b60006114b661141d565b90506114c2828261147b565b919050565b600067ffffffffffffffff8211156114e2576114e161144c565b5b6114eb8261143b565b9050602081019050919050565b82818337600083830152505050565b600061151a611515846114c7565b6114ac565b90508281526020810184848401111561153657611535611436565b5b6115418482856114f8565b509392505050565b600082601f83011261155e5761155d611431565b5b813561156e848260208601611507565b91505092915050565b60006020828403121561158d5761158c611427565b5b600082013567ffffffffffffffff8111156115ab576115aa61142c565b5b6115b784828501611549565b91505092915050565b600073ffffffffffffffffffffffffffffffffffffffff82169050919050565b60006115eb826115c0565b9050919050565b6115fb816115e0565b82525050565b600060208201905061161660008301846115f2565b92915050565b611625816115e0565b811461163057600080fd5b50565b6000813590506116428161161c565b92915050565b60006020828403121561165e5761165d611427565b5b600061166c84828501611633565b91505092915050565b60008115159050919050565b61168a81611675565b82525050565b60006020820190506116a56000830184611681565b92915050565b600081519050919050565b600082825260208201905092915050565b6000819050602082019050919050565b6116e0816115e0565b82525050565b60006116f283836116d7565b60208301905092915050565b6000602082019050919050565b6000611716826116ab565b61172081856116b6565b935061172b836116c7565b8060005b8381101561175c57815161174388826116e6565b975061174e836116fe565b92505060018101905061172f565b5085935050505092915050565b60006020820190508181036000830152611783818461170b565b905092915050565b600081519050919050565b600082825260208201905092915050565b60005b838110156117c55780820151818401526020810190506117aa565b60008484015250505050565b60006117dc8261178b565b6117e68185611796565b93506117f68185602086016117a7565b6117ff8161143b565b840191505092915050565b6000819050919050565b61181d8161180a565b82525050565b600060e082019050818103600083015261183d818a6117d1565b905061184c60208301896115f2565b6118596040830188611814565b6118666060830187611814565b6118736080830186611814565b61188060a0830185611681565b61188d60c0830184611814565b98975050505050505050565b600082825260208201905092915050565b60006118b58261178b565b6118bf8185611899565b93506118cf8185602086016117a7565b6118d88161143b565b840191505092915050565b6118ec8161180a565b82525050565b6118fb81611675565b82525050565b600060e083016000830151848203600086015261191e82826118aa565b915050602083015161193360208601826116d7565b50604083015161194660408601826118e3565b50606083015161195960608601826118e3565b50608083015161196c60808601826118e3565b5060a083015161197f60a08601826118f2565b5060c083015161199260c08601826118e3565b508091505092915050565b600060208201905081810360008301526119b78184611901565b905092915050565b600081519050919050565b600082825260208201905092915050565b6000819050602082019050919050565b60006119f783836118e3565b60208301905092915050565b6000602082019050919050565b6000611a1b826119bf565b611a2581856119ca565b9350611a30836119db565b8060005b83811015611a61578151611a4888826119eb565b9750611a5383611a03565b925050600181019050611a34565b5085935050505092915050565b60006040820190508181036000830152611a88818561170b565b90508181036020830152611a9c8184611a10565b90509392505050565b611aae8161180a565b8114611ab957600080fd5b50565b600081359050611acb81611aa5565b92915050565b600060208284031215611ae757611ae6611427565b5b6000611af584828501611abc565b91505092915050565b60008060408385031215611b1557611b14611427565b5b6000611b2385828601611633565b9250506020611b3485828601611abc565b9150509250929050565b600081905092915050565b6000611b548261178b565b611b5e8185611b3e565b9350611b6e8185602086016117a7565b80840191505092915050565b6000611b868284611b49565b915081905092915050565b7f4e487b7100000000000000000000000000000000000000000000000000000000600052602260045260246000fd5b60006002820490506001821680611bd857607f821691505b602082108103611beb57611bea611b91565b5b50919050565b7f446576656c6f706572206e6f7420726567697374657265640000000000000000600082015250565b6000611c27601883611796565b9150611c3282611bf1565b602082019050919050565b60006020820190508181036000830152611c5681611c1a565b9050919050565b7f446576656c6f70657220616c7265616479207665726966696564000000000000600082015250565b6000611c93601a83611796565b9150611c9e82611c5d565b602082019050919050565b60006020820190508181036000830152611cc281611c86565b9050919050565b60008190508160005260206000209050919050565b60008154611ceb81611bc0565b611cf58186611796565b94506001821660008114611d105760018114611d2657611d59565b60ff198316865281151560200286019350611d59565b611d2f85611cc9565b60005b83811015611d5157815481890152600182019150602081019050611d32565b808801955050505b50505092915050565b60006020820190508181036000830152611d7c8184611cde565b905092915050565b7f4e487b7100000000000000000000000000000000000000000000000000000000600052603260045260246000fd5b7f4e487b7100000000000000000000000000000000000000000000000000000000600052601160045260246000fd5b6000611ded8261180a565b9150611df88361180a565b9250828203905081811115611e1057611e0f611db3565b5b92915050565b6000611e218261180a565b9150611e2c8361180a565b9250828201905080821115611e4457611e43611db3565b5b92915050565b7f446576656c6f70657220616c7265616479207265676973746572656400000000600082015250565b6000611e80601c83611796565b9150611e8b82611e4a565b602082019050919050565b60006020820190508181036000830152611eaf81611e73565b9050919050565b7f47697448756220757365726e616d652063616e6e6f7420626520656d70747900600082015250565b6000611eec601f83611796565b9150611ef782611eb6565b602082019050919050565b60006020820190508181036000830152611f1b81611edf565b9050919050565b7f47697448756220757365726e616d6520616c726561647920726567697374657260008201527f6564000000000000000000000000000000000000000000000000000000000000602082015250565b6000611f7e602283611796565b9150611f8982611f22565b604082019050919050565b60006020820190508181036000830152611fad81611f71565b9050919050565b60006020601f8301049050919050565b600082821b905092915050565b6000600883026120017fffffffffffffffffffffffffffffffffffffffffffffffffffffffffffffffff82611fc4565b61200b8683611fc4565b95508019841693508086168417925050509392505050565b6000819050919050565b600061204861204361203e8461180a565b612023565b61180a565b9050919050565b6000819050919050565b6120628361202d565b61207661206e8261204f565b848454611fd1565b825550505050565b600090565b61208b61207e565b612096818484612059565b505050565b5b818110156120ba576120af600082612083565b60018101905061209c565b5050565b601f8211156120ff576120d081611cc9565b6120d984611fb4565b810160208510156120e8578190505b6120fc6120f485611fb4565b83018261209b565b50505b505050565b600082821c905092915050565b600061212260001984600802612104565b1980831691505092915050565b600061213b8383612111565b9150826002028217905092915050565b6121548261178b565b67ffffffffffffffff81111561216d5761216c61144c565b5b6121778254611bc0565b6121828282856120be565b600060209050601f8311600181146121b557600084156121a3578287015190505b6121ad858261212f565b865550612215565b601f1984166121c386611cc9565b60005b828110156121eb578489015182556001820191506020850194506020810190506121c6565b868310156122085784890151612204601f891682612111565b8355505b6001600288020188555050505b505050505050565b6000604082019050818103600083015261223781856117d1565b90506122466020830184611814565b9392505050565b60006122588261180a565b91507fffffffffffffffffffffffffffffffffffffffffffffffffffffffffffffffff820361228a57612289611db3565b5b600182019050919050565b7f4e487b7100000000000000000000000000000000000000000000000000000000600052601260045260246000fd5b60006122cf8261180a565b91506122da8361180a565b9250826122ea576122e9612295565b5b828204905092915050565b60006123008261180a565b915061230b8361180a565b92508282026123198161180a565b915082820484148315176123305761232f611db3565b5b5092915050565b600060608201905061234c6000830186611814565b6123596020830185611814565b6123666040830184611814565b94935050505056fea2646970667358221220a67b6484faf74d2d86a7f879912bac964c948e10753404bcade323369f01bc5b64736f6c634300081c0033",
  "linkReferences": {},
  "deployedLinkReferences": {}
}